:0600000002004B020AB4ED
:03000B00020D489B
:03001300020B07D6
:01001B0032B2
:03002300020A6866
:01002B0032A2
:01003300329A
:03003B00020B5A5B
:03004300020A2985
:03004600020BAEFC
:02004900E4735E
:0D004B0075813B120BB9E58260030200468F
:100058007913E94400601B7A0190125678B775A0AD
:1000680000E493F2A308B8000205A0D9F4DAF27507
:02007800A0FFE7
:06007A00E478FFF6D8FD5A
:100080007800E84400600A799475A000E4F309D888
:10009000FC7823E84400600C7901900094E4F0A31C
:0400A000D8FCD9FAB5
:0300A400751600CE
:1000A7007522AE75230BE4F524F525F526F527F51E
:0F00B70028F529F52AF52BF52CF52DF52EF52F2B
:0E00C6007808E4F608F608F608F6780C7600DE
:0200D400C20068
:0300D600020046DF
:1000D90012082F12085912084875DD0075D30075EA
:1000E900D5002275D30074FC55D24402F5D2900094
:1000F900B7E4F022A2DE227E007F009000B7E06024
:10010900200EBE00010F900005C007C006120EB6F2
:10011900D006D007C3EE9450EF94C340DE75820039
:10012900227F00BF080050278F057E0074402DFDF7
:10013900E43EFEED240AFDEE3400FEEF24B8F5821C
:10014900E43400F583E0FC8D828E83F00F80D47552
:10015900D3089000B77401F053D2FC75820122AF25
:1001690082BF880040088F06EE2478FE8042BF8057
:100179000040239000B8E0FD8F04EC2480F5F005E1
:10018900F07401800225E0D5F0FBFC42059000B82F
:10019900EDF07E00801AEF90106E93FE7003F582E9
:1001A90022EE30E70B9000B8E04402FFF053067FDF
:1001B9009000BAE0FFB50602805C9000BBE0FFB595
:1001C900060280529000BCE0FFB50602804890000C
:1001D900BDE0FFB50602803E9000BEE0FFB5060215
:1001E90080349000BFE0FFB50602802A7F027D02BD
:1001F900ED24B8FBE43400FC8B828C83E070088B1F
:10020900828C83EEF080080D8D07BD080040E1BFA8
:1002190008047582002212010075820122AF82BF93
:10022900880040088F06EE2478FE8043BF80004096
:10023900249000B8E0FD8F04EC2480F5F005F074FB
:1002490001800225E0D5F0FBF4FC52059000B8EDE1
:10025900F07E00801AEF90106E93FE7003F58222F3
:10026900EE30E70B9000B8E054FDFFF053067F7FB6
:1002790002EE6016EF24B8FCE43400FD8C828D8315
:10028900E0B506068C828D83E4F00FBF080040E1DB
:10029900120100758201227F00BF0800500FEF2470
:1002A900B8F582E43400F583E4F00F80EC02010034
:1002B900AF82C007120168AE82D0078F82C00612D2
:0E02C9000226D0068E822290000AE0F58222E4
:1002D700AFDBBF080280030206CB900007E0FE7F7A
:1002E70000900006E0FD7C004FF510EC4EF5117F05
:1002F70000900001E0F5128F16900000E0FE5460B8
:100307006027900000E0FE5306607D00BE2005BD1B
:100317000002800BBE400DBD000A7FFF0206CD7FA5
:10032700FF0206CD7FFF0206CDE51224F45003023B
:1003370006C7E512240B83F582E512241083F583A3
:10034700E473A9D7C797C7A661C7B3CECDCD0604B7
:1003570006050604030604040606900003E0FEBE35
:1003670001028013BE02028023BE03028033BE2235
:100377000302041A0204387514EE75151090110063
:10038700E493FD740193FE8D0702043A7514027518
:100397001511901170E493FD740193FE8D0702040B
:1003A7003A900002E0701475147275151190117669
:1003B700E493FD740193FE8D078078900002E0FEC0
:1003C700BE01147514A67515119011B4E493FD744C
:1003D7000193FE8D07805C900002E0FEBE0214755B
:1003E700148E7515119011A4E493FD740193FE8D7D
:1003F700078040900002E0FEBE031475147875155F
:100407001190118CE493FD740193FE8D0780247F76
:10041700FF8020900002E0701475142D751511905F
:10042700112BE493FD740193FE8D0780067FFF80F7
:10043700027FFFBFFF030206CD8F057E00C3ED9548
:1004470010EE951150048D108E11AD10AE11C3ED45
:100457009408EE940040067B087C008004AB10AC47
:10046700118B077C00C3EC9F50198C027B00EC2595
:1004770014F582E43515F583E493F98A828B83F0CA
:100487000C80E28F037C00EDC39BFDEE9CFE8D107C
:100497008E11EF2514F514E43515F5150206CD90E8
:1004A7000002E0FE8E107511000206CD900000E5F7
:1004B70013F0AD10AE11C3ED9401EE94005003029A
:1004C70006CD7F010206CD900002E0F5130206CDAE
:1004D700900000E0541F702F900003E0FD7E009015
:1004E7000002E0FC7B004206EB4205BE0114BD00A2
:1004F70011901109E493FE30E5030206CD7FFF0258
:1005070006CD7FFF0206CD900000E0FE53061F7D5B
:1005170000BE0277BD0074900004E0FEBE010280B9
:100527005FBE02028049BE03028033BE0402801D03
:10053700BE81028040BE8202802ABE83028014BE32
:10054700844474BC55DE4402F5DE0206CD53DE73E7
:100557000206CD74BC55D64402F5D60206CD53D655
:10056700730206CD74BC55D44402F5D40206CD53AC
:10057700D4730206CD74BC55D24402F5D20206CD1F
:1005870053D2730206CD7FFF0206CD7FFF0206CD51
:10059700900000E0541F702F900003E0FD7E009054
:1005A7000002E0FC7B004206EB4205BE0114BD00E1
:1005B70011901109E493FE30E5030206CD7FFF0297
:1005C70006CD7FFF0206CD900000E0FE53061F7D9B
:1005D70000BE0205BD000280030206A5900003E0ED
:1005E700FD7E00900002E0FC7B004206EB4205EE38
:1005F7004D60030206A1900005E0FD7E0090000417
:10060700E0FC7B004206EB4205BE0106BD0003028B
:100617000695BE0205BD00028060BE0305BD00024F
:100627008044BE0405BD00028028BE8105BD0002CE
:100637008052BE8205BD00028036BE8305BD000222
:10064700801ABE8451BD004E74BF55DE4403F5DEEB
:100657008074747F55DE440CF5DE806A74BF55D60E
:100667004403F5D68060747F55D6440CF5D6805682
:1006770074BF55D44403F5D4804C747F55D4440CCF
:10068700F5D4804274BF55D24403F5D28038747FC5
:1006970055D2440CF5D27FFF802C7FFF80287FFF47
:1006A7008024900000E4F0900001F0AD10AE11C37B
:1006B700ED9402EE940040047F02800AAF1080069A
:1006C7007FFF80027FFFBFFF077512FF75DCCF2218
:1006D700EF24F740068FDD75DCC02275DD0075DC81
:1006E700C0227405B51202805F7406B51268AE1099
:1006F700AF11C3EE9408EF940040067C087D00809C
:1007070004AC10AD117D00C3ED9C50198D027B0028
:10071700ED2514F582E43515F583E493F98A828B88
:1007270083F00D80E28C037D00EEC39BFEEF9DFFFF
:100737008E108F11EC2514F514E43515F5158CDDA5
:10074700AEDC6306408EDC22E5E35480FFE5104F04
:10075700F5E375DC022275DD0075DC022275DD002C
:1007670043DC022220D903020810E5D9540FFFAD5C
:10077700D95305307E00BD0005BE0002801BBD10A9
:1007870005BE00028035BD2005BE00028042BD3097
:1007970005BE0002805902080EEF24FB5003020831
:1007A7000EEF2F9007AE738008800B805A80588019
:1007B7005612076480511200FD804CEF24FB40471E
:1007C700EF2F9007CD73803F803D803B8039803786
:1007D700EF24FB4032EF2F9007E2738008800B80F5
:1007E70026802480221206E9801D1200EC8018EF73
:1007F70024FB4013EF2F90080173800880098007BE
:10080700800580031202D7C2D930D80F75DC027574
:10081700D21275E300C2DAC2D9C2D810DA0122E5D2
:10082700DA20E20375D8FF2275E20053E27F43E244
:100837002975E30053E2BF53D1FB75D18043D10142
:100847002243E10443E10243E10143D81FD2EAD244
:10085700AF227E0A7F008EEE8FEF75D2127E007F69
:0C086700008EEC8FED75EAC075DC0222FB
:100873001200D99000947402F075821F120BBD9080
:1008830000947402F075820E120BBD9000947402F2
:10089300F075820A120BBD9000947402F0758211F8
:1008A300120BBD9000947401F075821E120BBD9063
:1008B30000947401F0758220120BBD9000947401B2
:1008C300F075820B120BBD9000947401F0758210C9
:1008D300020BBD75821F120C84E582B40100E43360
:1008E300FFB528028042EFF5286031E52C601775CB
:1008F30082F01201689000957401F075821E120C4B
:10090300D4752C0080197582F4120168900095E467
:10091300F075821E120CD4752C0180031202A09074
:100923000032E4F5F0120E0575820E120C84E58296
:10093300B40100E433FFB529028042EFF5296031A9
:10094300E52D60177582F11201689000957401F02E
:10095300758220120CD4752D0080197582F5120151
:1009630068900095E4F0758220120CD4752D0180F7
:10097300031202A0900032E4F5F0120E0575820A0C
:10098300120C84E582B40100E433FFB52A028042ED
:10099300EFF52A6031E52E60177582F21201689037
:1009A30000957401F075820B120CD4752E0080191A
:1009B3007582F6120168900095E4F075820B120CB3
:1009C300D4752E0180031202A0900032E4F5F012D8
:1009D3000E05758211120C84E582B40100E433FF25
:1009E300B52B0122EFF52B6031E52F60177582F3EC
:1009F3001201689000957401F0758210120CD47581
:100A03002F0080197582F7120168900095E4F07544
:100A13008210120CD4752F0180031202A0900032B1
:060A2300E4F5F0020E05EF
:100A2900C021C0E0C0F0C082C083C007C006C005B5
:100A3900C004C003C002C001C000C0D075D00012FC
:100A4900076BD0D0D000D001D002D003D004D0059C
:100A5900D006D007D083D082D0F0D0E0D02132C0E8
:100A690021C0E0C0F0C082C083C007C006C005C075
:100A790004C003C002C001C000C0D075D0003098C6
:100A890005120F71C298309905120FA7C299D0D0DB
:100A9900D000D001D002D003D004D005D006D007B1
:100AA900D083D082D0F0D0E0D02132C021C0E0C0C4
:100AB900F0C082C083C007C006C005C004C003C01F
:100AC90002C001C000C0D075D0009000C2E0FEA3F2
:100AD900E0FFC007C0068E828F83120049D006D07E
:100AE90007D0D0D000D001D002D003D004D005D097
:100AF90006D007D083D082D0F0D0E0D02132C021F7
:100B0900C0E0C0F0C082C083C007C006C005C004F1
:100B1900C003C002C001C000C0D075D0009000C49D
:100B2900E0FEA3E0FFC007C0068E828F8312004952
:100B3900D006D007D0D0D000D001D002D003D00445
:100B4900D005D006D007D083D082D0F0D0E0D02114
:100B590032C021C0E0C0F0C082C083C007C006C057
:100B690005C004C003C002C001C000C0D075D000D8
:100B79009000C0E0FEA3E04E600E9000C0E0F8A334
:100B8900E0F5838882120049D0D0D000D001D0028C
:100B9900D003D004D005D006D007D083D082D0F0BE
:100BA900D0E0D02132120ECE1208731208D680FB83
:040BB900758200221F
:100BBD00E582FF90120693FEEF9011DE93FF700118
:100BCD0022900094E0FD701BBF0209EEF4FC5292DE
:100BDD00EC529322BF0402800122EEF4FC5296ECFB
:100BED00529722BD0214BF0207EE4292EE429322AB
:100BFD00BF0439EE4296EE429722BD0116BF0208A0
:100C0D00EEF45292EE429322BF0421EEF45296EE90
:100C1D00429722BD0316BF0208EE4292EEF45293A4
:100C2D0022BF0408EE4296EEF4FE529722AF82BF29
:100C3D000102800FBF02028013BF03028017BF04A1
:100C4D00358023E5C620E22E539DFB22E5C620E329
:100C5D0025539DF722AEC65306047F00BE0117BF74
:100C6D000014539DFB22AEC65306087F00BE01063D
:100C7D00BF0003539DF722E582FF9011B693FEEF5F
:100C8D0090120693FDEF9011DE93FF7003F5822213
:100C9D00EE600D8E82C007C005120C3AD005D0074C
:100CAD007E00BF0202800ABF03028009BF040C80D0
:100CBD0008AE908006AEA08002AEB0ED5E60047509
:100CCD0082012275820022E582FF9011B693FEEF1C
:100CDD0090120693FDEF9011DE93FFEE600D8E8264
:100CED00C007C005120C3AD005D007A2AFE433FE01
:100CFD00C2AFBF0202800ABF03028017BF04368055
:100D0D0024900095E07007EDF4FF52908027ED429E
:100D1D00908022900095E07007EDF4FF52A08015B1
:100D2D00ED42A08010900095E07007EDF4FF52B0F9
:0B0D3D008003ED42B0EE6002D2AF2256
:100D4800C0D075D00808B8000D09B900090ABA0062
:100D5800050BBB00010CD0D032A2AFC2AFA808A9C6
:100D680009AA0AAB0BAC8A8588F092AF30F51274E9
:100D7800012C600D08B8000909B900050ABA00017C
:100D88000BC3EC9406FCECC313FC75F07DE8A4F8E7
:100D9800ADF075F07DE9A42DF9E435F0FD75F07D31
:100DA800EAA42DFAE435F0FD75F07DEBA42DFB7D6A
:100DB80000EC28F582E93DF583EA3DF5F0EB3D22AC
:100DC800A2AFC2AFA808A909AA0AAB0BAC0C92AF94
:100DD80075F020E8A4A8F075F020E9A428F582A809
:100DE800F075F020EAA428F583A8F075F020EBA4AC
:100DF80028F9A8F075F020ECA42889F02285823023
:100E080085833185F032F533120D6185823485830F
:100E18003585F036F537E5304531453245337001D3
:100E280022A830A931AA32AB3385343885353985C3
:100E3800363A85373BE8494A4B60DBC003C002C0FD
:100E480001C000120D61AC82AD83AEF0FFD000D0BE
:100E580001D002D003ECC39538FCED9539FDEE9531
:100E68003AFEEF953BFFC3EC94E8ED9403EE940053
:100E7800EF940040A118B8FF0919B9FF051ABAFF85
:100E8800011B883089318A328B3374E82538F5386C
:100E980074033539F539E4353AF53AE4353BF53B31
:100EA800853834853935853A36853B378087AE8233
:100EB800AF83EE4F600F05A105A105A105A11EBED8
:100EC800FF011F80ED2275A15575A1AA74F855B9C7
:100ED8004406F5B975A100901388120EB6759E5D8B
:100EE800759D0074F055894402F58953C9EF758CD6
:0A0EF80006C28DD2A9D28CD2AF221F
:100F020022AF82BF02005036EF75F002A424C2F570
:100F120082740035F0F583E517F0E518A3F0BF0001
:100F2200028005BF0118800B900096E024FF928892
:100F3200D2A822900096E0FF24FF928AD2AA22AF82
:100F420082BF02005028BF00028005BF0108800452
:100F5200C2A88002C2AAEF75F002A424C2FE7400E5
:0F0F620035F0FF8E828F837402F0740FA3F0229C
:100F71009000C6E0FF7E008F828E83A37517108ECE
:100F810018121038AE829000C7E0FFEEB5070122BB
:100F91009000C6E02497F582E43400F583E599F0EA
:100FA1009000C6EEF0223000409000C8E0FF9000B3
:100FB100C9E0FEEFB50605A200C200229000C9E01B
:100FC10024A7F582E43400F583E0F5999000C9E0A7
:100FD100FF7E008F828E83A37517108E1812103832
:0A0FE100AE82AF839000C9EEF0224B
:100FEB00E517451860467A01E51725E0F517E51872
:100FFB00334012F518E5829517E583951840030ADF
:10100B0080E6C3E51813F518E51713F517C3E5824A
:10101B009517F5F0E58395184005F58385F082C3A8
:10102B00E51813F518E51713F517DAE122C2D5E524
:10103B008330E70DD2D5E4C39582F582E49583F531
:10104B0083E51830E70BE4C39517F517E49518F50E
:10105B0018120FEB30D50BE4C39582F582E4958320
:03106B00F58322E8
:10106E0000000000000000002A2B280000000000F5
:10107E000000000000000000000000000000000062
:10108E002C9EB4A0A1A2A434A6A7A5AE362D3738A7
:10109E00271E1F20212223242526B333B62EB7B8B0
:1010AE009F8485868788898A8B8C8D8E8F9091926E
:1010BE00939495969798999A9B9C9D2F3130A3ADBA
:1010CE00350405060708090A0B0C0D0E0F10111238
:1010DE00131415161718191A1B1C1DAFB1B0B50035
:1010EE00120110010000000809125DC50001010285
:1010FE0003011200090229000101008064090400A5
:10110E000002030101000921100121012243000701
:10111E0005010308000A0705810308000A430005BC
:10112E00010906A101050719E029E715002501951A
:10113E0008750181029501750881039506750815DC
:10114E000025FF0507190029E78100050819012967
:10115E0005150025019505750191029501750391FF
:10116E0003C02900040309040400140343004800CB
:10117E0035003500780020006B006200640014001A
:10118E0016034300480035003500780064007500F2
:10119E0069006E006F0016000E03440065007100BA
:0811AE0069006E0067000E00ED
:1011B6000000000000000000000000000000000128
:1011C6000000000000000000000000000000030412
:1011D60000000200000000000101010101010101FF
:1011E60000000202020202020202000003030303DD
:1011F60003030303000004040404040404040000BD
:10120600010204081020408000000102040810209A
:101216004080000001020408102040800000010206
:101226000408102040800000FFFFFFFFFFFFFFFFC4
:10123600FFFFFF00FFFF0102FFFFFFFFFFFFFFFFB2
:10124600FFFFFFFFFFFFFFFF03FFFFFFFFFFFFFFA4
:091256000000000000000000008F
:02125F0000008D
:04126100020F020F67
:041265000000000085
:00000001FF
