:0600000002004B020B0997
:03000B00020D9D46
:03001300020B5C81
:01001B0032B2
:03002300020ABD11
:01002B0032A2
:01003300329A
:03003B00020BAF06
:03004300020A7E30
:03004600020C03A6
:02004900E4735E
:0D004B0075813A120C0EE58260030200463A
:100058007913E94400601B7A019012AB78B775A058
:1000680000E493F2A308B8000205A0D9F4DAF27507
:02007800A0FFE7
:06007A00E478FFF6D8FD5A
:100080007800E84400600A799475A000E4F309D888
:10009000FC7823E84400600C7901900094E4F0A31C
:0400A000D8FCD9FAB5
:0300A400751600CE
:1000A70075220375230CE4F524F525F526F527F5C8
:0D00B70028F529F52AF52BF52CF52DF52E51
:0E00C4007808E4F608F608F608F6780C7600E0
:0200D200C2006A
:0300D400020046E1
:1000D70012082D12085712084675DD0075D30075F2
:1000E700D5002275D30074FC55D24402F5D2900096
:1000F700B7E4F022A2DE227E007F009000B7E06026
:10010700200EBE00010F900005C007C006120F0B9E
:10011700D006D007C3EE9450EF94C340DE7582003B
:10012700227F00BF080050278F057E0074402DFDF9
:10013700E43EFEED240AFDEE3400FEEF24B8F5821E
:10014700E43400F583E0FC8D828E83F00F80D47554
:10015700D3089000B77401F053D2FC75820122AF27
:1001670082BF880040088F06EE2478FE8042BF8059
:100177000040239000B8E0FD8F04EC2480F5F005E3
:10018700F07401800225E0D5F0FBFC42059000B831
:10019700EDF07E00801AEF9010C393FE7003F58296
:1001A70022EE30E70B9000B8E04402FFF053067FE1
:1001B7009000BAE0FFB50602805C9000BBE0FFB597
:1001C700060280529000BCE0FFB50602804890000E
:1001D700BDE0FFB50602803E9000BEE0FFB5060217
:1001E70080349000BFE0FFB50602802A7F027D02BF
:1001F700ED24B8FBE43400FC8B828C83E070088B21
:10020700828C83EEF080080D8D07BD080040E1BFAA
:100217000804758200221200FE75820122AF82BF98
:10022700880040088F06EE2478FE8043BF80004098
:10023700249000B8E0FD8F04EC2480F5F005F074FD
:1002470001800225E0D5F0FBF4FC52059000B8EDE3
:10025700F07E00801AEF9010C393FE7003F58222A0
:10026700EE30E70B9000B8E054FDFFF053067F7FB8
:1002770002EE6016EF24B8FCE43400FD8C828D8317
:10028700E0B506068C828D83E4F00FBF080040E1DD
:100297001200FE758201227F00BF0800500FEF2475
:1002A700B8F582E43400F583E4F00F80EC0200FE39
:1002B700AF82C007120166AE82D0078F82C00612D6
:0E02C7000224D0068E822290000AE0F58222E8
:1002D500AFDBBF080280030206C9900007E0FE7F7E
:1002E50000900006E0FD7C004FF510EC4EF5117F07
:1002F50000900001E0F5128F16900000E0FE5460BA
:100305006027900000E0FE5306607D00BE2005BD1D
:100315000002800BBE400DBD000A7FFF0206CB7FA9
:10032500FF0206CB7FFF0206CBE51224F450030241
:1003350006C5E512240B83F582E512241083F583A7
:10034500E473A7D5C595C5A45FC5B1CCCBCB0604D1
:1003550006050604030604040606900003E0FEBE37
:1003650001028013BE02028023BE03028033BE2237
:1003750003020418020436751443751511901155BE
:10038500E493FD740193FE8D0702043875145775C7
:1003950015119011C5E493FD740193FE8D070204B8
:1003A50038900002E070147514C77515119011CBC3
:1003B500E493FD740193FE8D078078900002E0FEC2
:1003C500BE01147514FB751511901209E493FD74A3
:1003D5000193FE8D07805C900002E0FEBE0214755D
:1003E50014E37515119011F9E493FD740193FE8DD5
:1003F500078040900002E0FEBE03147514CD75150C
:10040500119011E1E493FD740193FE8D0780247F23
:10041500FF8020900002E07014751482751511900C
:100425001180E493FD740193FE8D0780067FFF80A4
:10043500027FFFBFFF030206CB8F057E00C3ED954C
:1004450010EE951150048D108E11AD10AE11C3ED47
:100455009408EE940040067B087C008004AB10AC49
:10046500118B077C00C3EC9F50198C027B00EC2597
:1004750014F582E43515F583E493F98A828B83F0CC
:100485000C80E28F037C00EDC39BFDEE9CFE8D107E
:100495008E11EF2514F514E43515F5150206CB90EC
:1004A5000002E0FE8E107511000206CB900000E5FB
:1004B50013F0AD10AE11C3ED9401EE94005003029C
:1004C50006CB7F010206CB900002E0F5130206CBB6
:1004D500900000E0541F702F900003E0FD7E009017
:1004E5000002E0FC7B004206EB4205BE0114BD00A4
:1004F5001190115EE493FE30E5030206CB7FFF0207
:1005050006CB7FFF0206CB900000E0FE53061F7D61
:1005150000BE0277BD0074900004E0FEBE010280BB
:100525005FBE02028049BE03028033BE0402801D05
:10053500BE81028040BE8202802ABE83028014BE34
:10054500844474BC55DE4402F5DE0206CB53DE73EB
:100555000206CB74BC55D64402F5D60206CB53D65B
:10056500730206CB74BC55D44402F5D40206CB53B2
:10057500D4730206CB74BC55D24402F5D20206CB25
:1005850053D2730206CB7FFF0206CB7FFF0206CB59
:10059500900000E0541F702F900003E0FD7E009056
:1005A5000002E0FC7B004206EB4205BE0114BD00E3
:1005B5001190115EE493FE30E5030206CB7FFF0246
:1005C50006CB7FFF0206CB900000E0FE53061F7DA1
:1005D50000BE0205BD000280030206A3900003E0F1
:1005E500FD7E00900002E0FC7B004206EB4205EE3A
:1005F5004D600302069F900005E0FD7E009000041B
:10060500E0FC7B004206EB4205BE0106BD0003028D
:100615000693BE0205BD00028060BE0305BD000253
:100625008044BE0405BD00028028BE8105BD0002D0
:100635008052BE8205BD00028036BE8305BD000224
:10064500801ABE8451BD004E74BF55DE4403F5DEED
:100655008074747F55DE440CF5DE806A74BF55D610
:100665004403F5D68060747F55D6440CF5D6805684
:1006750074BF55D44403F5D4804C747F55D4440CD1
:10068500F5D4804274BF55D24403F5D28038747FC7
:1006950055D2440CF5D27FFF802C7FFF80287FFF49
:1006A5008024900000E4F0900001F0AD10AE11C37D
:1006B500ED9402EE940040047F02800AAF1080069C
:1006C5007FFF80027FFFBFFF077512FF75DCCF221A
:1006D500EF24F740068FDD75DCC02275DD0075DC83
:1006E500C0227405B51202805F7406B51268AE109B
:1006F500AF11C3EE9408EF940040067C087D00809E
:1007050004AC10AD117D00C3ED9C50198D027B002A
:10071500ED2514F582E43515F583E493F98A828B8A
:1007250083F00D80E28C037D00EEC39BFEEF9DFF01
:100735008E108F11EC2514F514E43515F5158CDDA7
:10074500AEDC6306408EDC22E5E35480FFE5104F06
:10075500F5E375DC022275DD0075DC022275DD002E
:1007650043DC022220D90302080EE5D9540FFFAD60
:10077500D95305307E00BD0005BE0002801BBD10AB
:1007850005BE00028035BD2005BE00028042BD3099
:1007950005BE0002805902080CEF24FB5003020835
:1007A5000CEF2F9007AC738008800B805A8058801F
:1007B5005612076280511200FB804CEF24FB404724
:1007C500EF2F9007CB73803F803D803B803980378A
:1007D500EF24FB4032EF2F9007E0738008800B80F9
:1007E50026802480221206E7801D1200EA8018EF79
:1007F50024FB4013EF2F9007FF73800880098007C3
:10080500800580031202D5C2D930D80F75DC027578
:10081500D21275E300C2DAC2D9C2D810DA0122E5D4
:10082500DA20E20375D8FF2275E20053E27F43E246
:100835002975E30053E2BF53D1FB75D18043D10144
:100845002243E10443E10243E10143D81FD2EAD246
:10085500AF227E0A7F008EEE8FEF75D2127E007F6B
:0C086500008EEC8FED75EAC075DC0222FD
:100871001200D79000947402F075820E120C12903F
:1008810000947402F075820F120C1290009474029D
:10089100F0758210120C129000947402F07582119E
:1008A100120C129000947402F0758222120C1290B4
:1008B10000947402F0758221120C1290009474015C
:1008C100F075821E120C129000947401F075821F53
:1008D100120C129000947401F0758220020C1275B2
:1008E100820E120CD9E582B40100E433FFB528026F
:1008F1008041EFF5286030E52C60167582F3120116
:1009010066900095E4F075821E120D29752C008009
:10091100197582F3120166900095E4F075821E123A
:100921000D29752C01800312029E900032E4F5F02E
:10093100120E5A75820F120CD9E582B40100E4330C
:10094100FFB529028041EFF5296030E52D6016756C
:1009510082F4120166900095E4F075821F120D2950
:10096100752D0080197582F4120166900095E4F0EE
:1009710075821F120D29752D01800312029E9000B0
:1009810032E4F5F0120E5A758210120CD9E582B4D8
:100991000100E433FFB52A028041EFF52A6030E51A
:1009A1002E60167582F5120166900095E4F075824D
:1009B10020120D29752E0080197582F5120166909D
:1009C1000095E4F0758220120D29752E0180031225
:1009D100029E900032E4F5F0120E5A758211120C4B
:1009E100D9E582B40100E433FFB52B028019EFF59C
:1009F1002B60087582F6120166800312029E900038
:100A010032E4F5F0120E5A758222120CD9E5827584
:100A1100F00AA4FF758221C007120CD9AE82D0075B
:100A2100EE2FFFB5270122E5277044740AB5261E73
:100A3100BF011B7582F7C00712016690000AE4F539
:100A4100F0120E5A7582F7120224D0078021740128
:100A5100B5261CBF0A197582F8C0071201669000FD
:100A61000AE4F5F0120E5A7582F8120224D00785B5
:0D0A710027268F27900005E4F5F0020E5AAD
:100A7E00C021C0E0C0F0C082C083C007C006C00560
:100A8E00C004C003C002C001C000C0D075D00012A7
:100A9E000769D0D0D000D001D002D003D004D00549
:100AAE00D006D007D083D082D0F0D0E0D02132C093
:100ABE0021C0E0C0F0C082C083C007C006C005C020
:100ACE0004C003C002C001C000C0D075D000309871
:100ADE0005120FC6C298309905120FFCC299D0D0DC
:100AEE00D000D001D002D003D004D005D006D0075C
:100AFE00D083D082D0F0D0E0D02132C021C0E0C06F
:100B0E00F0C082C083C007C006C005C004C003C0C9
:100B1E0002C001C000C0D075D0009000C2E0FEA39C
:100B2E00E0FFC007C0068E828F83120049D006D028
:100B3E0007D0D0D000D001D002D003D004D005D041
:100B4E0006D007D083D082D0F0D0E0D02132C021A1
:100B5E00C0E0C0F0C082C083C007C006C005C0049C
:100B6E00C003C002C001C000C0D075D0009000C448
:100B7E00E0FEA3E0FFC007C0068E828F83120049FD
:100B8E00D006D007D0D0D000D001D002D003D004F0
:100B9E00D005D006D007D083D082D0F0D0E0D021BF
:100BAE0032C021C0E0C0F0C082C083C007C006C002
:100BBE0005C004C003C002C001C000C0D075D00083
:100BCE009000C0E0FEA3E04E600E9000C0E0F8A3DF
:100BDE00E0F5838882120049D0D0D000D001D00237
:100BEE00D003D004D005D006D007D083D082D0F069
:100BFE00D0E0D02132120F231208711208E080FBD0
:040C0E0075820022C9
:100C1200E582FF90125B93FEEF90123393FF700117
:100C220022900094E0FD701BBF0209EEF4FC529288
:100C3200EC529322BF0402800122EEF4FC5296ECA5
:100C4200529722BD0214BF0207EE4292EE42932255
:100C5200BF0439EE4296EE429722BD0116BF02084A
:100C6200EEF45292EE429322BF0421EEF45296EE3B
:100C7200429722BD0316BF0208EE4292EEF452934F
:100C820022BF0408EE4296EEF4FE529722AF82BFD4
:100C92000102800FBF02028013BF03028017BF044C
:100CA200358023E5C620E22E539DFB22E5C620E3D4
:100CB20025539DF722AEC65306047F00BE0117BF1F
:100CC2000014539DFB22AEC65306087F00BE0106E8
:100CD200BF0003539DF722E582FF90120B93FEEFB4
:100CE20090125B93FDEF90123393FF7003F5822213
:100CF200EE600D8E82C007C005120C8FD005D007A2
:100D02007E00BF0202800ABF03028009BF040C807A
:100D120008AE908006AEA08002AEB0ED5E600475B3
:100D220082012275820022E582FF90120B93FEEF70
:100D320090125B93FDEF90123393FFEE600D8E8263
:100D4200C007C005120C8FD005D007A2AFE433FE56
:100D5200C2AFBF0202800ABF03028017BF043680FF
:100D620024900095E07007EDF4FF52908027ED4249
:100D7200908022900095E07007EDF4FF52A080155C
:100D8200ED42A08010900095E07007EDF4FF52B0A4
:0B0D92008003ED42B0EE6002D2AF2201
:100D9D00C0D075D00808B8000D09B900090ABA000D
:100DAD00050BBB00010CD0D032A2AFC2AFA808A971
:100DBD0009AA0AAB0BAC8A8588F092AF30F5127494
:100DCD00012C600D08B8000909B900050ABA000127
:100DDD000BC3EC9406FCECC313FC75F07DE8A4F892
:100DED00ADF075F07DE9A42DF9E435F0FD75F07DDC
:100DFD00EAA42DFAE435F0FD75F07DEBA42DFB7D15
:100E0D0000EC28F582E93DF583EA3DF5F0EB3D2256
:100E1D00A2AFC2AFA808A909AA0AAB0BAC0C92AF3E
:100E2D0075F020E8A4A8F075F020E9A428F582A8B3
:100E3D00F075F020EAA428F583A8F075F020EBA456
:100E4D0028F9A8F075F020ECA42889F02285822FCE
:100E5D0085833085F031F532120DB6858233858369
:100E6D003485F035F536E52F453045314532700185
:100E7D0022A82FA930AA31AB328533378534388576
:100E8D00353985363AE8494A4B60DBC003C002C0AC
:100E9D0001C000120DB6AC82AD83AEF0FFD000D014
:100EAD0001D002D003ECC39537FCED9538FDEE95DE
:100EBD0039FEEF953AFFC3EC94E8ED9403EE940000
:100ECD00EF940040A118B8FF0919B9FF051ABAFF30
:100EDD00011B882F89308A318B3274E82537F5371D
:100EED0074033538F538E43539F539E4353AF53AE2
:100EFD00853733853834853935853A368087AE82E6
:100F0D00AF83EE4F600F05A105A105A105A11EBE82
:100F1D00FF011F80ED2275A15575A1AA74F855B971
:100F2D004406F5B975A100901388120F0B759E5DDF
:100F3D00759D0074F055894402F58953C9EF758C80
:0A0F4D0006C28DD2A9D28CD2AF22C9
:100F570022AF82BF02005036EF75F002A424C2F51B
:100F670082740035F0F583E517F0E518A3F0BF00AC
:100F7700028005BF0118800B900096E024FF92883D
:100F8700D2A822900096E0FF24FF928AD2AA22AF2D
:100F970082BF02005028BF00028005BF01088004FD
:100FA700C2A88002C2AAEF75F002A424C2FE740090
:0F0FB70035F0FF8E828F837457F0740FA3F022F2
:100FC6009000C6E0FF7E008F828E83A37517108E79
:100FD6001812108DAE829000C7E0FFEEB507012211
:100FE6009000C6E02497F582E43400F583E599F095
:100FF6009000C6EEF0223000409000C8E0FF90005E
:10100600C9E0FEEFB50605A200C200229000C9E0C5
:1010160024A7F582E43400F583E0F5999000C9E051
:10102600FF7E008F828E83A37517108E1812108D87
:0A103600AE82AF839000C9EEF022F5
:10104000E517451860467A01E51725E0F517E5181C
:10105000334012F518E5829517E583951840030A89
:1010600080E6C3E51813F518E51713F517C3E582F5
:101070009517F5F0E58395184005F58385F082C353
:10108000E51813F518E51713F517DAE122C2D5E5CF
:101090008330E70DD2D5E4C39582F582E49583F5DC
:1010A00083E51830E70BE4C39517F517E49518F5B9
:1010B0001812104030D50BE4C39582F582E4958375
:0310C000F5832293
:1010C30000000000000000002A2B280000000000A0
:1010D300000000000000000000000000000000000D
:1010E3002C9EB4A0A1A2A434A6A7A5AE362D373852
:1010F300271E1F20212223242526B333B62EB7B85B
:101103009F8485868788898A8B8C8D8E8F90919218
:10111300939495969798999A9B9C9D2F3130A3AD64
:10112300350405060708090A0B0C0D0E0F101112E2
:10113300131415161718191A1B1C1DAFB1B0B500DF
:10114300120110010000000809125DC5000101022F
:10115300030112000902290001010080640904004F
:1011630000020301010009211001210122430007AC
:1011730005010308000A0705810308000A43000567
:10118300010906A101050719E029E71500250195C5
:101193000875018102950175088103950675081587
:1011A3000025FF0507190029E78100050819012912
:1011B30005150025019505750191029501750391AA
:1011C30003C0290004030904040014034300480076
:1011D30035003500780020006B00620064001400C5
:1011E300160343004800350035007800640075009D
:1011F30069006E006F0016000E0344006500710065
:0812030069006E0067000E0097
:10120B0000000000000000000000000000000001D2
:10121B0000000000000000000000000000000304BC
:10122B0000000200000000000101010101010101A9
:10123B000000020202020202020200000303030387
:10124B000303030300000404040404040404000067
:10125B000102040810204080000001020408102045
:10126B0040800000010204081020408000000102B1
:10127B000408102040800000FFFFFFFFFFFFFFFF6F
:10128B00FFFFFF00FFFF0102FFFFFFFFFFFFFFFF5D
:10129B00FFFFFFFFFFFFFFFF03FFFFFFFFFFFFFF4F
:0912AB000000000000000000003A
:0212B400000038
:0412B600570F570F68
:0412BA000000000030
:00000001FF
